:100000000C9434000C9446000C9446000C9446006A
:100010000C9446000C9446000C9446000C94460048
:100020000C9446000C9446000C9446000C94460038
:100030000C9446000C9446000C9446000C94460028
:100040000C9446000C9446000C9446000C94460018
:100050000C9446000C9446000C9446000C94460008
:100060000C9446000C94460011241FBECFEFD8E03C
:10007000DEBFCDBF21E0A0E0B1E001C01D92A43001
:10008000B207E1F70E946A000C947C000C94000017
:10009000462F572FBC018091000190910101A09142
:1000A0000201B0910301411551056105710549F443
:1000B0008093000190930101A0930201B09303018A
:1000C0000895415051096109710980E991E0A0E06A
:1000D000B0E0E9CF8FEF84B9CFEFC5B968EE73E038
:1000E00080E090E00E94480015B868EE73E080E080
:0C00F00090E00E944800F1CFF894FFCF90
:00000001FF
