:100000000C9434000C9451000C9451000C94510049
:100010000C9451000C9451000C9451000C9451001C
:100020000C9451000C9451000C9451000C9451000C
:100030000C9451000C9451000C9451000C945100FC
:100040000C9451000C9451000C9451000C945100EC
:100050000C9451000C9451000C9451000C945100DC
:100060000C9451000C94510011241FBECFEFD8E026
:10007000DEBFCDBF11E0A0E0B1E0E0EFF6E002C0EE
:1000800005900D92A030B107D9F721E0A0E0B1E0D2
:1000900001C01D92A430B207E1F70E94A3010C94A5
:1000A00076030C9400002F923F924F925F926F92D2
:1000B0007F928F929F92AF92BF92CF92DF92EF92F8
:1000C000FF920F931F93CF93DF93CDB7DEB72E9799
:1000D0000FB6F894DEBF0FBECDBF6D837E838B83DA
:1000E0009C8380E090E08D879E878B879C878987A3
:1000F0009A878F839887E42FF52FFE2FF295F07F54
:10010000EE27FF0F822F932F9695879596958795CB
:10011000969587958E2B9F2B322F3295307F2227F5
:10012000330FC02ED12ED694C794D694C794D694AC
:10013000C794C22AD32A102F1295107F0027110FBF
:10014000E982FA822E2D3F2D3695279536952795F3
:1001500036952795202B312B5695479556954795E3
:1001600056954795EF81F885A984BA848B849C8441
:100170006D847E8411E0E217F307AC04BD048806A9
:1001800099066406750608F4112D1170103009F0F7
:100190005AC0AF81B885AA0FBB1FAA0FBB1FAA0FF9
:1001A000BB1F0D811E810A0F1B1FE02FF12FA080A6
:1001B000B1806B817C81A60FB71FEA2FFB2F808057
:1001C00091806E2F7F2FE02FF12F62807380E62FBA
:1001D000F72F42805380E02FF12F24803580E62FC7
:1001E000F72FA481B581E02FF12FE680F780E62F6D
:1001F000F72F6681778111E08A149B044604570427
:10020000A205B3056E057F0509F0112D11701030A0
:1002100009F47DC06F817885E985FA85AB85BC8559
:100220000D851E856F5F7F4FEF4FFF4FAF4FBF4F65
:100230000F4F1F4FAB87BC870D871E876F83788753
:10024000E987FA878FCF80E090E0282F392F2B871E
:100250003C872D873E8729873A878F8198852F8312
:100260003887880F991F880F991F880F991F2D8134
:100270003E81280F391F2D833E832B813C81280F1F
:10028000391F2B833C8309811A81077010708F817D
:10029000988549855A856B857C85ED85FE8521E0AD
:1002A0008017910780E090E04807590768077907B1
:1002B000E807F90708F4212D2170203009F029C042
:1002C000EF81F885AD81BE81AE0FBF1F8C912B8170
:1002D0003C81E20FF31F90819817C9F48F819885B4
:1002E00029853A854B855C856D857E858F5F9F4F1F
:1002F0002F4F3F4F4F4F5F4F6F4F7F4F4B875C8765
:100300006D877E878F83988729873A87C0CF812D15
:1003100001C081E02E960FB6F894DEBF0FBECDBFB0
:10032000DF91CF911F910F91FF90EF90DF90CF90D1
:10033000BF90AF909F908F907F906F905F904F9005
:100340003F902F900895CF92DF92EF92FF920F93FC
:100350001F938FEF84B988EE93E0C82ED92E00E06A
:1003600010E08FEF85B9EC2CFD2C6E2D7F2D802FAA
:10037000912F57D115B86E2D7F2D802F912F51D1F0
:10038000F0CF2F923F924F925F926F927F928F9217
:100390009F92AF92BF92CF92DF92EF92FF920F9314
:1003A0001F93CF93DF93CDB7DEB72E970FB6F89498
:1003B000DEBF0FBECDBF6D837E838B839C8380E0C9
:1003C00090E08D879E878B879C8789879A878F830C
:1003D0009887E42FF52FFE2FF295F07FEE27FF0F81
:1003E000822F932F969587959695879596958795C5
:1003F0008E2B9F2B322F3295307F2227330FC02E2A
:10040000D12ED694C794D694C794D694C794C22AB2
:10041000D32A102F1295107F0027110FE982FA823C
:100420002E2D3F2D36952795369527953695279570
:10043000202B312B569547955695479556954795C0
:10044000EF81F885A984BA848B849C846D847E8432
:1004500011E0E217F307AC04BD04880699066406B0
:10046000750608F4112D1170103009F05AC0AF81D3
:10047000B885AA0FBB1FAA0FBB1FAA0FBB1F0D81F8
:100480001E810A0F1B1FE02FF12FA080B1806B810E
:100490007C81A60FB71FEA2FFB2F808091806E2FE3
:1004A0007F2FE02FF12F62807380E62FF72F42809D
:1004B0005380E02FF12F24803580E62FF72FA48181
:1004C000B581E02FF12FE680F780E62FF72F6681C8
:1004D000778111E08A149B0446045704A205B305F2
:1004E0006E057F0509F0112D1170103009F47DC0E3
:1004F0006F817885E985FA85AB85BC850D851E857C
:100500006F5F7F4FEF4FFF4FAF4FBF4F0F4F1F4FEB
:10051000AB87BC870D871E876F837887E987FA874B
:100520008FCF80E090E0282F392F2B873C872D87B5
:100530003E8729873A878F8198852F833887880F50
:10054000991F880F991F880F991F2D813E81280FB1
:10055000391F2D833E832B813C81280F391F2B832C
:100560003C8309811A81077010708F8198854985B5
:100570005A856B857C85ED85FE8521E08017910786
:1005800080E090E04807590768077907E807F9070E
:1005900008F4212D2170203009F029C0EF81F88561
:1005A000AD81BE81AE0FBF1F8C912B813C81E20FCC
:1005B000F31F90819817C9F48F81988529853A8512
:1005C0004B855C856D857E858F5F9F4F2F4F3F4F9D
:1005D0004F4F5F4F6F4F7F4F4B875C876D877E8795
:1005E0008F83988729873A87C0CF812D01C081E00A
:1005F0002E960FB6F894DEBF0FBECDBFDF91CF9120
:100600001F910F91FF90EF90DF90CF90BF90AF9030
:100610009F908F907F906F905F904F903F902F9022
:100620000895CF93DF93CDB7DEB724970FB6F89434
:10063000DEBF0FBECDBF8B839C8369837A8380E04E
:1006400090E00CC029813A814B815C81215030407F
:100650004040504029833A834B835C8349815A81CF
:100660006B817C8121E0403051056807790709F0F2
:10067000212D2170203009F030C090930301809328
:10068000020190930101809300014091000150917B
:100690000101609102017091030121E0403952078C
:1006A0006807790708F4212D2170203009F0CACF9E
:1006B000209100013091010140910201509103010C
:1006C0002F5F3F4F4F4F5F4F309301012093000149
:1006D0005093030140930201D8CF24960FB6F894AB
:1006E000DEBF0FBECDBFDF91CF910895F894FFCF4D
:00000001FF
