:100000000C9434000C9446000C9446000C9446006A
:100010000C9446000C9446000C9446000C94460048
:100020000C9446000C9446000C9446000C94460038
:100030000C9446000C9446000C9446000C94460028
:100040000C9446000C9446000C9446000C94460018
:100050000C9446000C9446000C9446000C94460008
:100060000C9446000C94460011241FBECFEFD8E03C
:10007000DEBFCDBF21E0A0E0B1E001C01D92A43001
:10008000B207E1F70E9492010C94F8050C9400006D
:100090002F923F924F925F926F927F928F929F9298
:1000A000AF92BF92CF92DF92EF92FF920F931F9386
:1000B000CF93DF93CDB7DEB760970FB6F894DEBF6E
:1000C0000FBECDBFA42FB52F402F512F78876F8340
:1000D0009E838D8380E090E0988B8F879E878D87AD
:1000E0009C878B879A878987F22FF295F07FFF0F85
:1000F000E12DD12CC12C569547951F2D1795FA82CD
:10010000E9820E2D079556954795179507955695B3
:100110004795179507954E2B5F2B0C291D29B695F2
:10012000A79537952795B695A79537952795B695B1
:10013000A795BC83AB8337952795C984DA84AB84B4
:10014000BC848D849E846F847888E1E0C016D106DB
:10015000A406B506820693068B819C816806790603
:1001600008F4E12DE170E03009F05CC0A985BA85A2
:10017000AA0FBB1FAA0FBB1FAA0FBB1FCF80D8841B
:10018000CA0EDB1E6C2D7D2DE62FF72FC080D1808F
:100190008D819E81A80FB91FEA2FFB2FA080B1800F
:1001A0008E2F9F2FE62FF72F82809380E82FF92F35
:1001B00062807380E62FF72F44805580E82FF92F57
:1001C00024803580E62FF72FA681B781E82FF92FFD
:1001D000E680F780E1E0AC14BD04680479042404EF
:1001E0003504EA06FB0609F0E12DE170E03009F480
:1001F0007DC0E985FA85AB85BC856D857E858F855B
:100200009889EF5FFF4FAF4FBF4F6F4F7F4F8F4FBB
:100210009F4F7E876D87988B8F87FA87E987BC878A
:10022000AB878BCF80E090E0282F392F3E872D873A
:10023000388B2F873C872B8789859A853A87298732
:10024000880F991F880F991F880F991F2F81388554
:10025000280F391F38872F832D813E81280F391FA2
:100260003E832D8309811A810770107089859A85D4
:100270004B855C856D857E85EF85F88921E080174B
:10028000910780E090E04807590768077907E80779
:10029000F90708F4212D2170203009F029C0E985E3
:1002A000FA85AF81B885AE0FBF1F8C912D813E813D
:1002B000E20FF31F90819817C9F489859A852B85E1
:1002C0003C854D855E856F8578898F5F9F4F2F4F69
:1002D0003F4F4F4F5F4F6F4F7F4F5E874D87788BFC
:1002E0006F879A8789873C872B87C0CF812D01C074
:1002F00081E060960FB6F894DEBF0FBECDBFDF91F0
:10030000CF911F910F91FF90EF90DF90CF90BF9012
:10031000AF909F908F907F906F905F904F903F90A5
:100320002F900895AF92BF92CF92DF92FF920F93DA
:100330001F938FEFF82E8093010088EE93E0A82E94
:10034000B92E00E010E08F2D80930200CA2CDB2C28
:100350006C2D7D2D802F912FE6D3109202006C2DF5
:100360007D2D802F912FDFD3EECF2F923F924F9292
:100370005F926F927F928F929F92AF92BF92CF9235
:10038000DF92EF92FF920F931F93CF93DF93CDB73E
:10039000DEB760970FB6F894DEBF0FBECDBFA42FB7
:1003A000B52F402F512F78876F839E838D8380E0F8
:1003B00090E0988B8F879E878D879C878B879A8705
:1003C0008987F22FF295F07FFF0FE12DD12CC12C00
:1003D000569547951F2D1795FA82E9820E2D0795A0
:1003E00056954795179507955695479517950795EF
:1003F0004E2B5F2B0C291D29B695A7953795279570
:10040000B695A79537952795B695A795BC83AB83E9
:1004100037952795C984DA84AB84BC848D849E8407
:100420006F847888E1E0C016D106A406B50682067E
:1004300093068B819C816806790608F4E12DE170B2
:10044000E03009F05CC0A985BA85AA0FBB1FAA0FCE
:10045000BB1FAA0FBB1FCF80D884CA0EDB1E6C2D1A
:100460007D2DE62FF72FC080D1808D819E81A80F32
:10047000B91FEA2FFB2FA080B1808E2F9F2FE62F70
:10048000F72F82809380E82FF92F62807380E62F08
:10049000F72F44805580E82FF92F24803580E62FF0
:1004A000F72FA681B781E82FF92FE680F780E1E0EA
:1004B000AC14BD046804790424043504EA06FB0680
:1004C00009F0E12DE170E03009F47DC0E985FA859D
:1004D000AB85BC856D857E858F859889EF5FFF4FE5
:1004E000AF4FBF4F6F4F7F4F8F4F9F4F7E876D87AF
:1004F000988B8F87FA87E987BC87AB878BCF80E0A3
:1005000090E0282F392F3E872D87388B2F873C8707
:100510002B8789859A853A872987880F991F880FA5
:10052000991F880F991F2F813885280F391F388709
:100530002F832D813E81280F391F3E832D83098112
:100540001A810770107089859A854B855C856D8549
:100550007E85EF85F88921E08017910780E090E0A3
:100560004807590768077907E807F90708F4212DB4
:100570002170203009F029C0E985FA85AF81B8855E
:10058000AE0FBF1F8C912D813E81E20FF31F908132
:100590009817C9F489859A852B853C854D855E859C
:1005A0006F8578898F5F9F4F2F4F3F4F4F4F5F4F22
:1005B0006F4F7F4F5E874D87788B6F879A878987CC
:1005C0003C872B87C0CF812D01C081E060960FB69C
:1005D000F894DEBF0FBECDBFDF91CF911F910F9179
:1005E000FF90EF90DF90CF90BF90AF909F908F9053
:1005F0007F906F905F904F903F902F9008952F9233
:100600003F924F925F926F927F928F929F92AF92A2
:10061000BF92CF92DF92EF92FF920F931F93CF93EF
:10062000DF93CDB7DEB760970FB6F894DEBF0FBE8D
:10063000CDBFA42FB52F402F512F78876F839E8376
:100640008D8380E090E0988B8F879E878D879C8735
:100650008B879A878987F22FF295F07FFF0FE12D24
:10066000D12CC12C569547951F2D1795FA82E982FA
:100670000E2D0795569547951795079556954795CD
:10068000179507954E2B5F2B0C291D29B695A7951D
:1006900037952795B695A79537952795B695A7953C
:1006A000BC83AB8337952795C984DA84AB84BC843B
:1006B0008D849E846F847888E1E0C016D106A406FC
:1006C000B506820693068B819C816806790608F43C
:1006D000E12DE170E03009F05CC0A985BA85AA0F70
:1006E000BB1FAA0FBB1FAA0FBB1FCF80D884CA0E87
:1006F000DB1E6C2D7D2DE62FF72FC080D1808D81E4
:100700009E81A80FB91FEA2FFB2FA080B1808E2FEA
:100710009F2FE62FF72F82809380E82FF92F62809A
:100720007380E62FF72F44805580E82FF92F24801F
:100730003580E62FF72FA681B781E82FF92FE680C5
:10074000F780E1E0AC14BD046804790424043504A6
:10075000EA06FB0609F0E12DE170E03009F47DC006
:10076000E985FA85AB85BC856D857E858F85988901
:10077000EF5FFF4FAF4FBF4F6F4F7F4F8F4F9F4F79
:100780007E876D87988B8F87FA87E987BC87AB87D1
:100790008BCF80E090E0282F392F3E872D87388B34
:1007A0002F873C872B8789859A853A872987880FE9
:1007B000991F880F991F880F991F2F813885280F3F
:1007C000391F38872F832D813E81280F391F3E83A3
:1007D0002D8309811A810770107089859A854B8550
:1007E0005C856D857E85EF85F88921E0801791070E
:1007F00080E090E04807590768077907E807F9079C
:1008000008F4212D2170203009F029C0E985FA85EE
:10081000AF81B885AE0FBF1F8C912D813E81E20F55
:10082000F31F90819817C9F489859A852B853C859B
:100830004D855E856F8578898F5F9F4F2F4F3F4F26
:100840004F4F5F4F6F4F7F4F5E874D87788B6F871E
:100850009A8789873C872B87C0CF812D01C081E093
:1008600060960FB6F894DEBF0FBECDBFDF91CF917B
:100870001F910F91FF90EF90DF90CF90BF90AF90BE
:100880009F908F907F906F905F904F903F902F90B0
:1008900008952F923F924F925F926F927F928F9224
:1008A0009F92AF92BF92CF92DF92EF92FF920F93FF
:1008B0001F93CF93DF93CDB7DEB760970FB6F89451
:1008C000DEBF0FBECDBFA42FB52F402F512F78878D
:1008D0006F839E838D8380E090E0988B8F879E87C7
:1008E0008D879C878B879A878987F22FF295F07F77
:1008F000FF0FE12DD12CC12C569547951F2D179533
:10090000FA82E9820E2D079556954795179507951A
:1009100056954795179507954E2B5F2B0C291D294A
:10092000B695A79537952795B695A79537952795A9
:10093000B695A795BC83AB8337952795C984DA8490
:10094000AB84BC848D849E846F847888E1E0C0167B
:10095000D106A406B506820693068B819C816806A3
:10096000790608F4E12DE170E03009F05CC0A9855A
:10097000BA85AA0FBB1FAA0FBB1FAA0FBB1FCF8030
:10098000D884CA0EDB1E6C2D7D2DE62FF72FC0807C
:10099000D1808D819E81A80FB91FEA2FFB2FA080E7
:1009A000B1808E2F9F2FE62FF72F82809380E82F24
:1009B000F92F62807380E62FF72F44805580E82F4F
:1009C000F92F24803580E62FF72FA681B781E82FF5
:1009D000F92FE680F780E1E0AC14BD0468047904E7
:1009E00024043504EA06FB0609F0E12DE170E0304D
:1009F00009F47DC0E985FA85AB85BC856D857E856A
:100A00008F859889EF5FFF4FAF4FBF4F6F4F7F4F7D
:100A10008F4F9F4F7E876D87988B8F87FA87E987E7
:100A2000BC87AB878BCF80E090E0282F392F3E87A3
:100A30002D87388B2F873C872B8789859A853A8726
:100A40002987880F991F880F991F880F991F2F8159
:100A50003885280F391F38872F832D813E81280F35
:100A6000391F3E832D8309811A8107701070898593
:100A70009A854B855C856D857E85EF85F88921E0BB
:100A80008017910780E090E04807590768077907C9
:100A9000E807F90708F4212D2170203009F029C05A
:100AA000E985FA85AF81B885AE0FBF1F8C912D8186
:100AB0003E81E20FF31F90819817C9F489859A85CA
:100AC0002B853C854D855E856F8578898F5F9F4F2F
:100AD0002F4F3F4F4F4F5F4F6F4F7F4F5E874D8779
:100AE000788B6F879A8789873C872B87C0CF812D2A
:100AF00001C081E060960FB6F894DEBF0FBECDBF97
:100B0000DF91CF911F910F91FF90EF90DF90CF90E9
:100B1000BF90AF909F908F907F906F905F904F901D
:100B20003F902F900895CF93DF93CDB7DEB72497F2
:100B30000FB6F894DEBF0FBECDBF9C838B837A8344
:100B4000698380E090E00CC029813A814B815C810F
:100B500021503040404050403A8329835C834B838E
:100B600049815A816B817C8121E0411551056807DB
:100B7000790709F0212D2170203009F030C09093C1
:100B80000301809302019093010180930001409141
:100B9000000150910101609102017091030121E077
:100BA0004C3752076807790708F4212D217020304F
:100BB00009F0CACF2091000130910101409102015A
:100BC000509103012F5F3F4F4F4F5F4F3093010113
:100BD000209300015093030140930201D8CF249643
:100BE0000FB6F894DEBF0FBECDBFDF91CF91089551
:040BF000F894FFCFA7
:00000001FF
