:100000000C9434000C943E000C943E000C943E0082
:100010000C943E000C943E000C943E000C943E0068
:100020000C943E000C943E000C943E000C943E0058
:100030000C943E000C943E000C943E000C943E0048
:100040000C943E000C943E000C943E000C943E0038
:100050000C943E000C943E000C943E000C943E0028
:100060000C943E000C943E0011241FBECFEFD8E04C
:10007000DEBFCDBF0E9487000C9499000C94000055
:10008000CF93DF93CDB7DEB728970FB6F894DEBFD6
:100090000FBECDBF462F572FBC014D835E836F83AC
:1000A00078878D819E81AF81B885892B8A2B8B2B98
:1000B00049F428960FB6F894DEBF0FBECDBFDF918E
:1000C000CF91089519821A821B821C8289819A819C
:1000D000AB81BC818C379140A105B10560F08D8169
:1000E0009E81AF81B8850197A109B1098D839E8357
:1000F000AF83B887D6CF89819A81AB81BC810196C5
:10010000A11DB11D89839A83AB83BC83DFCF8FEFA1
:1001100084B9CFEFC5B968EE73E080E090E00E944B
:10012000400015B868EE73E080E090E00E94400067
:06013000F1CFF894FFCFAF
:00000001FF
