:100000000C9434000C9451000C9451000C94510049
:100010000C9451000C9451000C9451000C9451001C
:100020000C9451000C9451000C9451000C9451000C
:100030000C9451000C9451000C9451000C945100FC
:100040000C9451000C9451000C9451000C945100EC
:100050000C9451000C9451000C9451000C945100DC
:100060000C9451000C94510011241FBECFEFD8E026
:10007000DEBFCDBF11E0A0E0B1E0E0E4FBE002C0F4
:1000800005900D92A635B107D9F721E0A6E5B1E0BC
:1000900001C01D92AD37B207E1F70E944F020C94E8
:1000A0009E050C940000FC0180810895CF93DF939E
:1000B000EC018AE191E00E94BF0281E08F83DF9131
:1000C000CF910895FC01138214821582168280E07C
:1000D00091E09283818381E080830895FC01138203
:1000E0001482158216827283618381E08083089571
:1000F000CF93DF93EC0188818823B9F0E981FA81FD
:10010000309799F04B815C816D817E8180819181F6
:10011000A281B38184179507A607B70718F08F81CE
:10012000882331F01A8219821882DF91CF910895C5
:100130008EE591E00E944201882309F18B819C8128
:10014000AD81BE81E981FA8145E0489F9001499FD8
:10015000300D11240480F581E02DE20FF31F01968C
:10016000A11DB11D8B839C83AD83BE832181328110
:100170004381548160818EE591E00E9460018EE5AB
:1001800091E0DF91CF910C94E901462F572FBC01EC
:10019000411551056105710509F408951092730127
:1001A0001092740110927501109276018091730182
:1001B00090917401A0917501B09176018C379140B6
:1001C000A105B10528F04150510961097109E0CF3D
:1001D0008091730190917401A0917501B0917601A5
:1001E0000196A11DB11D8093730190937401A0939A
:1001F0007501B0937601DACFCF93DF9300D000D0B2
:10020000CDB7DEB769837A838B839C83BB27A92F05
:10021000982F872F0F900F900F900F90DF91CF9115
:100220000C944802EF92FF920F931F93CF93DF93AA
:10023000CDB7DEB728970FB6F894DEBF0FBECDBF9F
:10024000ED82FE820F83188779018A01E61AF70A88
:10025000080B190BC801B7012D813E814F815885CC
:100260000E946A02CA01B90128960FB6F894DEBF4F
:100270000FBECDBFDF91CF911F910F91FF90EF90F7
:10028000089508950F931F93FC0181E0058516855D
:100290002785308941895289638974890417150734
:1002A0002607370709F080E01F910F91089525E197
:1002B000FC0111922A95E9F790E080E00C94480245
:1002C0008F929F92AF92BF92DF92EF92FF920F9325
:1002D0001F93CF93DF9300D000D000D0CDB7DEB70F
:1002E0008D839E83162FD22EE32EF42E052F862F7C
:1002F00090E0B0E0A0E0BA2FA92F982F8827ED81D9
:10030000FE8141815281638174814C015D01841AB7
:10031000950AA60AB70A89829A82AB82BC82C50175
:10032000B4012D2D4F2D502F0E946A02ED81FE81C8
:100330002187328743875487158616861786108A49
:10034000D18AE28AF38A048B81E080838FE191E095
:100350000E94BF021F921F9386E291E09F938F93AA
:100360000E94AB02ED81FE8184858F9383858F93FC
:1003700082858F9381858F9387E391E09F938F93FD
:100380000E94AB02ED81FE8184898F9383898F93D4
:1003900082898F9381898F9382E491E09F938F93D9
:1003A0000E94AB020FB6F894DEBF0FBECDBF2696FB
:1003B0000FB6F894DEBF0FBECDBFDF91CF911F9176
:1003C0000F91FF90EF90DF90BF90AF909F908F9034
:1003D0000895CF92DF92EF92FF92CF93DF93EC01DB
:1003E0008881882371F04D855E856F85788989893C
:1003F0009A89AB89BC89481759076A077B0741F47A
:100400001882DF91CF91FF90EF90DF90CF90089509
:10041000C980DA80EB80FC8089859A85AB85BC85B4
:10042000C80ED91EEA1EFB1EC982DA82EB82FC824C
:100430007F936F935F934F9380E591E09F938F93AA
:100440000E94AB02BB27AF2D9E2D8D2D0E9448022E
:100450008D859E85AF85B8890196A11DB11D8D87BB
:100460009E87AF87B88B0F900F900F900F900F90D3
:100470000F90C7CFE0E8F0E083EA808389E08183D2
:1004800008959695879590938900809388000895A4
:100490009695879590938B0080938A0008958FEFAF
:1004A00084B90E943A0290E080E00E94410290E00C
:1004B00080E00E94480286E591E00E94620086E5A5
:1004C00091E00E9478006AE070E080E090E00E9495
:1004D000C500F5CF052E97FB1EF400940E94810203
:1004E00057FD07D00E94890207FC03D04EF40C94FC
:1004F000810250954095309521953F4F4F4F5F4F6A
:10050000089590958095709561957F4F8F4F9F4F7F
:100510000895A1E21A2EAA1BBB1BFD010DC0AA1F44
:10052000BB1FEE1FFF1FA217B307E407F50720F05C
:10053000A21BB30BE40BF50B661F771F881F991FD7
:100540001A9469F760957095809590959B01AC0120
:10055000BD01CF010895B0E0A0E0E1EBF2E00C9422
:100560007705FE01359661917191AF018091790116
:1005700090917A010E94EB02E2E00C9493050F93B4
:100580001F93CF93DF93E0917901F0917A0123815A
:1005900010E000E021FD0EC00FEF1FEFC801DF915A
:1005A000CF911F910F9108950995892B11F00FEFAD
:1005B0001FEFCE01EC0189916091790170917A0170
:1005C000DB011896ED91FC918111EECF8AE009953F
:1005D000892B21F3E1CFAFE0B0E0E1EFF2E00C9442
:1005E00067057C013B018A01DC0117961C921E9273
:1005F000169713968C9181FFC3C19AE0292EFE01B4
:1006000031964F01D70113969C91F30193FD85918B
:1006100093FF81913F01882309F448C1853239F461
:1006200093FD859193FF81913F01853229F4B701B4
:1006300090E00E94D904E6CFB12C412C512CBFE1AF
:10064000B51538F08B3209F188F4803201F183322C
:1006500021F157FC3AC020ED280F2A3040F556FE14
:100660001FC0B29C200D1124B22E06C08D3291F015
:10067000803379F7689450F8F30193FD859193FFE7
:1006800081913F018111DBCF20C0689451F86894BB
:1006900052F8F2CF689453F8EFCF689454F8ECCF47
:1006A000429C200D1124422E689455F8E5CF8E32DD
:1006B00029F456FCFBC0689456F8DECF8C3619F44A
:1006C000689457F8D9CF8836B9F2982F9F7D955402
:1006D0009330C0F08336A1F18337C1F1833509F03F
:1006E0005BC0D801CD90DD908D016B2D70E056FC84
:1006F00002C06FEF7FEFC6010E94C3045C016894E3
:1007000057F80AC00C5F1F4FEFE3E983AA24A394B4
:10071000B12C6401E89457F853FC04C04A141B043C
:1007200009F018F5342CA114B10431F5332009F483
:1007300069CFB70180E290E00E94D9043A94F6CFE5
:10074000D8018C9189830E5F1F4FE0CFF801C190D3
:10075000D1908F016B2D70E056FC02C06FEF7FEFE0
:10076000C6010E94CE045C01D5CFB70180E290E0C3
:100770000E94D9044A94D2CFF60157FC859157FEC6
:1007800081916F01B70190E00E94D90431103A9431
:10079000B1E0AB1AB108C7CF843619F0893609F039
:1007A00074C0F80157FE6AC0619171918191919175
:1007B0008F01E52DEF76DE2E97FF09C0909580958D
:1007C000709561957F4F8F4F9F4F6894D7F82AE0BF
:1007D00030E0A4010E940905C82EC818AC2C5D2C7D
:1007E000D6FE0CC0E89450F8CB1440F4D4FE05C0FB
:1007F000D2FC03C05D2D5E7E552EAB2C54FE98C0FE
:10080000FE01EC0DF11D8081803309F08AC0652D59
:10081000697E562E752D7870372E53FC98C050FE89
:1008200092C0BC2CA41418F44C0CB42CBA1854FE6E
:1008300094C0B70180E390E00E94D90452FE09C041
:1008400088E790E051FE02C088E590E0B7010E9481
:10085000D904CB1408F48DC0CA94D12C8FEFC81AD8
:10086000D80AC80CD91CD6018E916D01B70190E051
:100870000E94D9048C149D04B1F758CF61917191F5
:10088000072E000C880B990B93CFD52CE894D4F845
:100890002AE030E0853739F1F52DF97FDF2E8037FA
:1008A000A9F058F48835A9F08F36D9F0F701868180
:1008B00097812F96E2E10C9483058837B9F7D4FE2F
:1008C00002C06894D2F820E130E00DC06894D4F8FA
:1008D000F6CF54FE03C02F2F2660D22E20E132E047
:1008E00002C028E030E0F801D7FE15C041915191D7
:1008F000619171914C875D876E877F878F01A4011D
:100900006C857D858E859F850E940905C82EC81837
:10091000E894D7F863CF81919191AC0170E060E0E9
:10092000E9CF52FC02C0A39475CFA394A39472CFD5
:10093000852D867809F46ECFF6CFB70180E290E07E
:100940000E94D904A394A414C0F3312C70CF342C8A
:100950003A18A41408F46BCFF8CF852D867809F4E3
:1009600078CF8BE251FE80E257FC8DE2B70190E038
:100970006ECFB70180E390E00E94D904BA9469CFAA
:100980008FEF9FEF96CFFC010590615070400110F2
:10099000D8F7809590958E0F9F1F0895FC016150A8
:1009A000704001900110D8F7809590958E0F9F1F91
:1009B00008950F931F93CF93DF93182F092FEB0107
:1009C0008B8181FD09C01FEF0FEF812F902FDF91E9
:1009D000CF911F910F91089582FF14C02E813F8106
:1009E0008C819D81281739073CF4E881F981CF017A
:1009F00001969983888310838E819F8101969F83BE
:100A00008E83E3CFE885F985812F0995892BA1F3A2
:100A1000DACFFA01AA27283051F1203181F1E89488
:100A20006F936E7F6E5F7F4F8F4F9F4FAF4FB1E0E1
:100A30003ED0B4E03CD0670F781F891F9A1FA11DDC
:100A4000680F791F8A1F911DA11D6A0F711D811DDD
:100A5000911DA11D20D009F468943F912AE0269FA2
:100A600011243019305D3193DEF6CF010895462F01
:100A70004770405D4193B3E00FD0C9F7F6CF462FE2
:100A80004F70405D4A3318F0495D31FD405241934B
:100A900002D0A9F7EACFB4E0A69597958795779508
:100AA0006795BA95C9F700976105710508959B018F
:100AB000AC010A2E06945795479537952795BA9518
:100AC000C9F7620F731F841F951FA01D08952F92F1
:100AD0003F924F925F926F927F928F929F92AF92CE
:100AE000BF92CF92DF92EF92FF920F931F93CF931B
:100AF000DF93CDB7DEB7CA1BDB0B0FB6F894DEBFB2
:100B00000FBECDBF09942A88398848885F846E84D7
:100B10007D848C849B84AA84B984C884DF80EE8021
:100B2000FD800C811B81AA81B981CE0FD11D0FB62A
:100B3000F894DEBF0FBECDBFED010895F894FFCF4E
:100B400004000000060178C800000078C80000001A
:100B500050C800000000C800000053544F500073FC
:100B6000746172743A006272696768746E65737357
:100B7000203D2025640A0073746570203D202564A3
:100B80000A0073746570456E64203D2025640A0078
:060B90005B25645D00001E
:00000001FF
